{
  "_format": "hh-sol-artifact-1",
  "contractName": "Degree",
  "sourceName": "contracts/contract.sol",
  "abi": [
    {
      "anonymous": false,
      "inputs": [
        {
          "indexed": true,
          "internalType": "bytes32",
          "name": "hash",
          "type": "bytes32"
        },
        {
          "indexed": false,
          "internalType": "string",
          "name": "studentName",
          "type": "string"
        },
        {
          "indexed": false,
          "internalType": "string",
          "name": "degree",
          "type": "string"
        },
        {
          "indexed": false,
          "internalType": "uint256",
          "name": "yearOfPassing",
          "type": "uint256"
        },
        {
          "indexed": false,
          "internalType": "string",
          "name": "issuer",
          "type": "string"
        }
      ],
      "name": "CertificateIssued",
      "type": "event"
    },
    {
      "inputs": [
        {
          "internalType": "bytes32",
          "name": "",
          "type": "bytes32"
        }
      ],
      "name": "certificates",
      "outputs": [
        {
          "internalType": "string",
          "name": "studentName",
          "type": "string"
        },
        {
          "internalType": "string",
          "name": "degree",
          "type": "string"
        },
        {
          "internalType": "uint256",
          "name": "yearOfPassing",
          "type": "uint256"
        },
        {
          "internalType": "string",
          "name": "issuer",
          "type": "string"
        },
        {
          "internalType": "bytes32",
          "name": "hash",
          "type": "bytes32"
        }
      ],
      "stateMutability": "view",
      "type": "function"
    },
    {
      "inputs": [
        {
          "internalType": "string",
          "name": "_studentName",
          "type": "string"
        },
        {
          "internalType": "string",
          "name": "_degree",
          "type": "string"
        },
        {
          "internalType": "uint256",
          "name": "_yearOfPassing",
          "type": "uint256"
        },
        {
          "internalType": "string",
          "name": "_issuer",
          "type": "string"
        }
      ],
      "name": "issueCertificate",
      "outputs": [],
      "stateMutability": "nonpayable",
      "type": "function"
    },
    {
      "inputs": [
        {
          "internalType": "string",
          "name": "_studentName",
          "type": "string"
        },
        {
          "internalType": "string",
          "name": "_degree",
          "type": "string"
        },
        {
          "internalType": "uint256",
          "name": "_yearOfPassing",
          "type": "uint256"
        },
        {
          "internalType": "string",
          "name": "_issuer",
          "type": "string"
        }
      ],
      "name": "verifyCertificateDetails",
      "outputs": [
        {
          "internalType": "bool",
          "name": "",
          "type": "bool"
        }
      ],
      "stateMutability": "view",
      "type": "function"
    }
  ],
  "bytecode": "0x608060405234801561001057600080fd5b50610dbc806100206000396000f3fe608060405234801561001057600080fd5b50600436106100415760003560e01c8063742f068814610046578063caa5de4e1461007a578063f1414a4e146100aa575b600080fd5b610060600480360381019061005b91906108ab565b6100c6565b604051610071959493929190610b3b565b60405180910390f35b610094600480360381019061008f91906108d4565b610294565b6040516100a19190610ac6565b60405180910390f35b6100c460048036038101906100bf91906108d4565b6105ff565b005b60006020528060005260406000206000915090508060000180546100e990610cad565b80601f016020809104026020016040519081016040528092919081815260200182805461011590610cad565b80156101625780601f1061013757610100808354040283529160200191610162565b820191906000526020600020905b81548152906001019060200180831161014557829003601f168201915b50505050509080600101805461017790610cad565b80601f01602080910402602001604051908101604052809291908181526020018280546101a390610cad565b80156101f05780601f106101c5576101008083540402835291602001916101f0565b820191906000526020600020905b8154815290600101906020018083116101d357829003601f168201915b50505050509080600201549080600301805461020b90610cad565b80601f016020809104026020016040519081016040528092919081815260200182805461023790610cad565b80156102845780601f1061025957610100808354040283529160200191610284565b820191906000526020600020905b81548152906001019060200180831161026757829003601f168201915b5050505050908060040154905085565b600080858585856040516020016102ae9493929190610a84565b6040516020818303038152906040528051906020012090506000801b60008083815260200190815260200160002060040154146105f15760008060008381526020019081526020016000206040518060a001604052908160008201805461031490610cad565b80601f016020809104026020016040519081016040528092919081815260200182805461034090610cad565b801561038d5780601f106103625761010080835404028352916020019161038d565b820191906000526020600020905b81548152906001019060200180831161037057829003601f168201915b505050505081526020016001820180546103a690610cad565b80601f01602080910402602001604051908101604052809291908181526020018280546103d290610cad565b801561041f5780601f106103f45761010080835404028352916020019161041f565b820191906000526020600020905b81548152906001019060200180831161040257829003601f168201915b505050505081526020016002820154815260200160038201805461044290610cad565b80601f016020809104026020016040519081016040528092919081815260200182805461046e90610cad565b80156104bb5780601f10610490576101008083540402835291602001916104bb565b820191906000526020600020905b81548152906001019060200180831161049e57829003601f168201915b505050505081526020016004820154815250509050866040516020016104e19190610a6d565b60405160208183030381529060405280519060200120816000015160405160200161050c9190610a6d565b6040516020818303038152906040528051906020012014801561057e57508560405160200161053b9190610a6d565b6040516020818303038152906040528051906020012081602001516040516020016105669190610a6d565b60405160208183030381529060405280519060200120145b801561058d5750848160400151145b80156105e85750836040516020016105a59190610a6d565b6040516020818303038152906040528051906020012081606001516040516020016105d09190610a6d565b60405160208183030381529060405280519060200120145b925050506105f7565b60009150505b949350505050565b6000848484846040516020016106189493929190610a84565b6040516020818303038152906040528051906020012090506000801b600080838152602001908152602001600020600401541461068a576040517f08c379a000000000000000000000000000000000000000000000000000000000815260040161068190610ba3565b60405180910390fd5b6040518060a001604052808681526020018581526020018481526020018381526020018281525060008083815260200190815260200160002060008201518160000190805190602001906106df929190610776565b5060208201518160010190805190602001906106fc929190610776565b50604082015181600201556060820151816003019080519060200190610723929190610776565b5060808201518160040155905050807f144f30bac12159743c3c50913dd1df882003e5c486cf0f61c8459af8e17220a8868686866040516107679493929190610ae1565b60405180910390a25050505050565b82805461078290610cad565b90600052602060002090601f0160209004810192826107a457600085556107eb565b82601f106107bd57805160ff19168380011785556107eb565b828001600101855582156107eb579182015b828111156107ea5782518255916020019190600101906107cf565b5b5090506107f891906107fc565b5090565b5b808211156108155760008160009055506001016107fd565b5090565b600061082c61082784610bf4565b610bc3565b90508281526020810184848401111561084457600080fd5b61084f848285610c6b565b509392505050565b60008135905061086681610d58565b92915050565b600082601f83011261087d57600080fd5b813561088d848260208601610819565b91505092915050565b6000813590506108a581610d6f565b92915050565b6000602082840312156108bd57600080fd5b60006108cb84828501610857565b91505092915050565b600080600080608085870312156108ea57600080fd5b600085013567ffffffffffffffff81111561090457600080fd5b6109108782880161086c565b945050602085013567ffffffffffffffff81111561092d57600080fd5b6109398782880161086c565b935050604061094a87828801610896565b925050606085013567ffffffffffffffff81111561096757600080fd5b6109738782880161086c565b91505092959194509250565b61098881610c4b565b82525050565b61099781610c57565b82525050565b60006109a882610c24565b6109b28185610c2f565b93506109c2818560208601610c7a565b6109cb81610d47565b840191505092915050565b60006109e182610c24565b6109eb8185610c40565b93506109fb818560208601610c7a565b80840191505092915050565b6000610a14601a83610c2f565b91507f436572746966696361746520616c7265616479206578697374730000000000006000830152602082019050919050565b610a5081610c61565b82525050565b610a67610a6282610c61565b610cdf565b82525050565b6000610a7982846109d6565b915081905092915050565b6000610a9082876109d6565b9150610a9c82866109d6565b9150610aa88285610a56565b602082019150610ab882846109d6565b915081905095945050505050565b6000602082019050610adb600083018461097f565b92915050565b60006080820190508181036000830152610afb818761099d565b90508181036020830152610b0f818661099d565b9050610b1e6040830185610a47565b8181036060830152610b30818461099d565b905095945050505050565b600060a0820190508181036000830152610b55818861099d565b90508181036020830152610b69818761099d565b9050610b786040830186610a47565b8181036060830152610b8a818561099d565b9050610b99608083018461098e565b9695505050505050565b60006020820190508181036000830152610bbc81610a07565b9050919050565b6000604051905081810181811067ffffffffffffffff82111715610bea57610be9610d18565b5b8060405250919050565b600067ffffffffffffffff821115610c0f57610c0e610d18565b5b601f19601f8301169050602081019050919050565b600081519050919050565b600082825260208201905092915050565b600081905092915050565b60008115159050919050565b6000819050919050565b6000819050919050565b82818337600083830152505050565b60005b83811015610c98578082015181840152602081019050610c7d565b83811115610ca7576000848401525b50505050565b60006002820490506001821680610cc557607f821691505b60208210811415610cd957610cd8610ce9565b5b50919050565b6000819050919050565b7f4e487b7100000000000000000000000000000000000000000000000000000000600052602260045260246000fd5b7f4e487b7100000000000000000000000000000000000000000000000000000000600052604160045260246000fd5b6000601f19601f8301169050919050565b610d6181610c57565b8114610d6c57600080fd5b50565b610d7881610c61565b8114610d8357600080fd5b5056fea2646970667358221220593d23b5ac1a3cfe30e91bf41207927e016ca4e8c01dc32b4ccfcd4fde4dc44864736f6c63430008000033",
  "linkReferences": {},
  "deployedLinkReferences": {}
}