{
  "_format": "hh-sol-artifact-1",
  "contractName": "Degree",
  "sourceName": "contracts/contract.sol",
  "abi": [
    {
      "anonymous": false,
      "inputs": [
        {
          "indexed": true,
          "internalType": "bytes32",
          "name": "hash",
          "type": "bytes32"
        },
        {
          "indexed": false,
          "internalType": "string",
          "name": "studentName",
          "type": "string"
        },
        {
          "indexed": false,
          "internalType": "string",
          "name": "degree",
          "type": "string"
        },
        {
          "indexed": false,
          "internalType": "uint256",
          "name": "yearOfPassing",
          "type": "uint256"
        },
        {
          "indexed": false,
          "internalType": "string",
          "name": "issuer",
          "type": "string"
        }
      ],
      "name": "CertificateIssued",
      "type": "event"
    },
    {
      "inputs": [
        {
          "internalType": "bytes32",
          "name": "",
          "type": "bytes32"
        }
      ],
      "name": "certificates",
      "outputs": [
        {
          "internalType": "string",
          "name": "studentName",
          "type": "string"
        },
        {
          "internalType": "string",
          "name": "degree",
          "type": "string"
        },
        {
          "internalType": "uint256",
          "name": "yearOfPassing",
          "type": "uint256"
        },
        {
          "internalType": "string",
          "name": "issuer",
          "type": "string"
        },
        {
          "internalType": "bytes32",
          "name": "hash",
          "type": "bytes32"
        }
      ],
      "stateMutability": "view",
      "type": "function"
    },
    {
      "inputs": [
        {
          "internalType": "string",
          "name": "_studentName",
          "type": "string"
        },
        {
          "internalType": "string",
          "name": "_degree",
          "type": "string"
        },
        {
          "internalType": "uint256",
          "name": "_yearOfPassing",
          "type": "uint256"
        },
        {
          "internalType": "string",
          "name": "_issuer",
          "type": "string"
        }
      ],
      "name": "issueCertificate",
      "outputs": [],
      "stateMutability": "nonpayable",
      "type": "function"
    },
    {
      "inputs": [
        {
          "internalType": "bytes32",
          "name": "_hash",
          "type": "bytes32"
        }
      ],
      "name": "verifyCertificate",
      "outputs": [
        {
          "internalType": "bool",
          "name": "",
          "type": "bool"
        }
      ],
      "stateMutability": "view",
      "type": "function"
    },
    {
      "inputs": [
        {
          "internalType": "string",
          "name": "_studentName",
          "type": "string"
        },
        {
          "internalType": "string",
          "name": "_degree",
          "type": "string"
        },
        {
          "internalType": "uint256",
          "name": "_yearOfPassing",
          "type": "uint256"
        },
        {
          "internalType": "string",
          "name": "_issuer",
          "type": "string"
        }
      ],
      "name": "verifyCertificateDetails",
      "outputs": [
        {
          "internalType": "bool",
          "name": "",
          "type": "bool"
        }
      ],
      "stateMutability": "view",
      "type": "function"
    }
  ],
  "bytecode": "0x608060405234801561001057600080fd5b50610e1c806100206000396000f3fe608060405234801561001057600080fd5b506004361061004c5760003560e01c8063742f068814610051578063850c176814610085578063caa5de4e146100b5578063f1414a4e146100e5575b600080fd5b61006b6004803603810190610066919061090b565b610101565b60405161007c959493929190610b9b565b60405180910390f35b61009f600480360381019061009a919061090b565b6102cf565b6040516100ac9190610b26565b60405180910390f35b6100cf60048036038101906100ca9190610934565b6102f4565b6040516100dc9190610b26565b60405180910390f35b6100ff60048036038101906100fa9190610934565b61065f565b005b600060205280600052604060002060009150905080600001805461012490610d0d565b80601f016020809104026020016040519081016040528092919081815260200182805461015090610d0d565b801561019d5780601f106101725761010080835404028352916020019161019d565b820191906000526020600020905b81548152906001019060200180831161018057829003601f168201915b5050505050908060010180546101b290610d0d565b80601f01602080910402602001604051908101604052809291908181526020018280546101de90610d0d565b801561022b5780601f106102005761010080835404028352916020019161022b565b820191906000526020600020905b81548152906001019060200180831161020e57829003601f168201915b50505050509080600201549080600301805461024690610d0d565b80601f016020809104026020016040519081016040528092919081815260200182805461027290610d0d565b80156102bf5780601f10610294576101008083540402835291602001916102bf565b820191906000526020600020905b8154815290600101906020018083116102a257829003601f168201915b5050505050908060040154905085565b60008060001b6000808481526020019081526020016000206004015414159050919050565b6000808585858560405160200161030e9493929190610ae4565b6040516020818303038152906040528051906020012090506000801b60008083815260200190815260200160002060040154146106515760008060008381526020019081526020016000206040518060a001604052908160008201805461037490610d0d565b80601f01602080910402602001604051908101604052809291908181526020018280546103a090610d0d565b80156103ed5780601f106103c2576101008083540402835291602001916103ed565b820191906000526020600020905b8154815290600101906020018083116103d057829003601f168201915b5050505050815260200160018201805461040690610d0d565b80601f016020809104026020016040519081016040528092919081815260200182805461043290610d0d565b801561047f5780601f106104545761010080835404028352916020019161047f565b820191906000526020600020905b81548152906001019060200180831161046257829003601f168201915b50505050508152602001600282015481526020016003820180546104a290610d0d565b80601f01602080910402602001604051908101604052809291908181526020018280546104ce90610d0d565b801561051b5780601f106104f05761010080835404028352916020019161051b565b820191906000526020600020905b8154815290600101906020018083116104fe57829003601f168201915b505050505081526020016004820154815250509050866040516020016105419190610acd565b60405160208183030381529060405280519060200120816000015160405160200161056c9190610acd565b604051602081830303815290604052805190602001201480156105de57508560405160200161059b9190610acd565b6040516020818303038152906040528051906020012081602001516040516020016105c69190610acd565b60405160208183030381529060405280519060200120145b80156105ed5750848160400151145b80156106485750836040516020016106059190610acd565b6040516020818303038152906040528051906020012081606001516040516020016106309190610acd565b60405160208183030381529060405280519060200120145b92505050610657565b60009150505b949350505050565b6000848484846040516020016106789493929190610ae4565b6040516020818303038152906040528051906020012090506000801b60008083815260200190815260200160002060040154146106ea576040517f08c379a00000000000000000000000000000000000000000000000000000000081526004016106e190610c03565b60405180910390fd5b6040518060a0016040528086815260200185815260200184815260200183815260200182815250600080838152602001908152602001600020600082015181600001908051906020019061073f9291906107d6565b50602082015181600101908051906020019061075c9291906107d6565b506040820151816002015560608201518160030190805190602001906107839291906107d6565b5060808201518160040155905050807f144f30bac12159743c3c50913dd1df882003e5c486cf0f61c8459af8e17220a8868686866040516107c79493929190610b41565b60405180910390a25050505050565b8280546107e290610d0d565b90600052602060002090601f016020900481019282610804576000855561084b565b82601f1061081d57805160ff191683800117855561084b565b8280016001018555821561084b579182015b8281111561084a57825182559160200191906001019061082f565b5b509050610858919061085c565b5090565b5b8082111561087557600081600090555060010161085d565b5090565b600061088c61088784610c54565b610c23565b9050828152602081018484840111156108a457600080fd5b6108af848285610ccb565b509392505050565b6000813590506108c681610db8565b92915050565b600082601f8301126108dd57600080fd5b81356108ed848260208601610879565b91505092915050565b60008135905061090581610dcf565b92915050565b60006020828403121561091d57600080fd5b600061092b848285016108b7565b91505092915050565b6000806000806080858703121561094a57600080fd5b600085013567ffffffffffffffff81111561096457600080fd5b610970878288016108cc565b945050602085013567ffffffffffffffff81111561098d57600080fd5b610999878288016108cc565b93505060406109aa878288016108f6565b925050606085013567ffffffffffffffff8111156109c757600080fd5b6109d3878288016108cc565b91505092959194509250565b6109e881610cab565b82525050565b6109f781610cb7565b82525050565b6000610a0882610c84565b610a128185610c8f565b9350610a22818560208601610cda565b610a2b81610da7565b840191505092915050565b6000610a4182610c84565b610a4b8185610ca0565b9350610a5b818560208601610cda565b80840191505092915050565b6000610a74601a83610c8f565b91507f436572746966696361746520616c7265616479206578697374730000000000006000830152602082019050919050565b610ab081610cc1565b82525050565b610ac7610ac282610cc1565b610d3f565b82525050565b6000610ad98284610a36565b915081905092915050565b6000610af08287610a36565b9150610afc8286610a36565b9150610b088285610ab6565b602082019150610b188284610a36565b915081905095945050505050565b6000602082019050610b3b60008301846109df565b92915050565b60006080820190508181036000830152610b5b81876109fd565b90508181036020830152610b6f81866109fd565b9050610b7e6040830185610aa7565b8181036060830152610b9081846109fd565b905095945050505050565b600060a0820190508181036000830152610bb581886109fd565b90508181036020830152610bc981876109fd565b9050610bd86040830186610aa7565b8181036060830152610bea81856109fd565b9050610bf960808301846109ee565b9695505050505050565b60006020820190508181036000830152610c1c81610a67565b9050919050565b6000604051905081810181811067ffffffffffffffff82111715610c4a57610c49610d78565b5b8060405250919050565b600067ffffffffffffffff821115610c6f57610c6e610d78565b5b601f19601f8301169050602081019050919050565b600081519050919050565b600082825260208201905092915050565b600081905092915050565b60008115159050919050565b6000819050919050565b6000819050919050565b82818337600083830152505050565b60005b83811015610cf8578082015181840152602081019050610cdd565b83811115610d07576000848401525b50505050565b60006002820490506001821680610d2557607f821691505b60208210811415610d3957610d38610d49565b5b50919050565b6000819050919050565b7f4e487b7100000000000000000000000000000000000000000000000000000000600052602260045260246000fd5b7f4e487b7100000000000000000000000000000000000000000000000000000000600052604160045260246000fd5b6000601f19601f8301169050919050565b610dc181610cb7565b8114610dcc57600080fd5b50565b610dd881610cc1565b8114610de357600080fd5b5056fea264697066735822122010d5fd32a78589d7fdfada3f154a37b79edba8cb87d77e348a898a318deb905364736f6c63430008000033",
  "linkReferences": {},
  "deployedLinkReferences": {}
}